{
  "contractName": "VaccineTracking",
  "abi": [
    {
      "inputs": [
        {
          "internalType": "uint256",
          "name": "",
          "type": "uint256"
        }
      ],
      "name": "batch_index",
      "outputs": [
        {
          "internalType": "uint256",
          "name": "",
          "type": "uint256"
        }
      ],
      "stateMutability": "view",
      "type": "function",
      "constant": true
    },
    {
      "inputs": [
        {
          "internalType": "int64",
          "name": "batch_num",
          "type": "int64"
        },
        {
          "internalType": "string",
          "name": "vaccine_type",
          "type": "string"
        },
        {
          "internalType": "string",
          "name": "location",
          "type": "string"
        },
        {
          "internalType": "int256",
          "name": "temperature",
          "type": "int256"
        },
        {
          "internalType": "int64",
          "name": "received_at",
          "type": "int64"
        },
        {
          "internalType": "int64",
          "name": "delivered_at",
          "type": "int64"
        }
      ],
      "name": "createVaccineBatch",
      "outputs": [],
      "stateMutability": "nonpayable",
      "type": "function"
    },
    {
      "inputs": [
        {
          "internalType": "uint256",
          "name": "index",
          "type": "uint256"
        }
      ],
      "name": "getVaccineBatch",
      "outputs": [
        {
          "internalType": "int64",
          "name": "",
          "type": "int64"
        },
        {
          "internalType": "string",
          "name": "",
          "type": "string"
        },
        {
          "internalType": "string",
          "name": "",
          "type": "string"
        },
        {
          "internalType": "int256",
          "name": "",
          "type": "int256"
        },
        {
          "internalType": "address",
          "name": "",
          "type": "address"
        },
        {
          "internalType": "int64",
          "name": "",
          "type": "int64"
        },
        {
          "internalType": "int64",
          "name": "",
          "type": "int64"
        }
      ],
      "stateMutability": "view",
      "type": "function",
      "constant": true
    },
    {
      "inputs": [],
      "name": "getLastVaccineBatch",
      "outputs": [
        {
          "internalType": "uint256",
          "name": "",
          "type": "uint256"
        },
        {
          "internalType": "int64",
          "name": "",
          "type": "int64"
        },
        {
          "internalType": "string",
          "name": "",
          "type": "string"
        },
        {
          "internalType": "string",
          "name": "",
          "type": "string"
        },
        {
          "internalType": "int256",
          "name": "",
          "type": "int256"
        },
        {
          "internalType": "address",
          "name": "",
          "type": "address"
        },
        {
          "internalType": "int64",
          "name": "",
          "type": "int64"
        },
        {
          "internalType": "int64",
          "name": "",
          "type": "int64"
        }
      ],
      "stateMutability": "view",
      "type": "function",
      "constant": true
    }
  ],
  "bytecode": "0x608060405234801561001057600080fd5b50610cd7806100206000396000f3fe608060405234801561001057600080fd5b506004361061004c5760003560e01c80631095fb00146100515780635276928d14610087578063573352ad146100b7578063d62cc101146100d3575b600080fd5b61006b600480360381019061006691906106fb565b6100f8565b60405161007e9796959493929190610837565b60405180910390f35b6100a1600480360381019061009c91906106fb565b6102b3565b6040516100ae91906108c3565b60405180910390f35b6100d160048036038101906100cc9190610a6b565b6102d7565b005b6100db610446565b6040516100ef989796959493929190610b30565b60405180910390f35b600060608060008060008060008060008a815260200190815260200160002090508060000160009054906101000a900460070b816001018260020183600301548460040160009054906101000a900473ffffffffffffffffffffffffffffffffffffffff168560040160149054906101000a900460070b8660050160009054906101000a900460070b85805461018d90610beb565b80601f01602080910402602001604051908101604052809291908181526020018280546101b990610beb565b80156102065780601f106101db57610100808354040283529160200191610206565b820191906000526020600020905b8154815290600101906020018083116101e957829003601f168201915b5050505050955084805461021990610beb565b80601f016020809104026020016040519081016040528092919081815260200182805461024590610beb565b80156102925780601f1061026757610100808354040283529160200191610292565b820191906000526020600020905b81548152906001019060200180831161027557829003601f168201915b50505050509450975097509750975097509750975050919395979092949650565b600181815481106102c357600080fd5b906000526020600020016000915090505481565b6000806000600180805490506102ed9190610c4b565b81526020019081526020016000209050868160000160006101000a81548167ffffffffffffffff021916908360070b67ffffffffffffffff1602179055508581600101908051906020019061034392919061060e565b508481600201908051906020019061035c92919061060e565b50838160030181905550338160040160006101000a81548173ffffffffffffffffffffffffffffffffffffffff021916908373ffffffffffffffffffffffffffffffffffffffff160217905550828160040160146101000a81548167ffffffffffffffff021916908360070b67ffffffffffffffff160217905550818160050160006101000a81548167ffffffffffffffff021916908360070b67ffffffffffffffff16021790555060018080805490506104179190610c4b565b908060018154018082558091505060019003906000526020600020016000909190919091505550505050505050565b6000806060806000806000806000806000600180549050815260200190815260200160002090506001805490508160000160009054906101000a900460070b826001018360020184600301548560040160009054906101000a900473ffffffffffffffffffffffffffffffffffffffff168660040160149054906101000a900460070b8760050160009054906101000a900460070b8580546104e790610beb565b80601f016020809104026020016040519081016040528092919081815260200182805461051390610beb565b80156105605780601f1061053557610100808354040283529160200191610560565b820191906000526020600020905b81548152906001019060200180831161054357829003601f168201915b5050505050955084805461057390610beb565b80601f016020809104026020016040519081016040528092919081815260200182805461059f90610beb565b80156105ec5780601f106105c1576101008083540402835291602001916105ec565b820191906000526020600020905b8154815290600101906020018083116105cf57829003601f168201915b5050505050945098509850985098509850985098509850509091929394959697565b82805461061a90610beb565b90600052602060002090601f01602090048101928261063c5760008555610683565b82601f1061065557805160ff1916838001178555610683565b82800160010185558215610683579182015b82811115610682578251825591602001919060010190610667565b5b5090506106909190610694565b5090565b5b808211156106ad576000816000905550600101610695565b5090565b6000604051905090565b600080fd5b600080fd5b6000819050919050565b6106d8816106c5565b81146106e357600080fd5b50565b6000813590506106f5816106cf565b92915050565b600060208284031215610711576107106106bb565b5b600061071f848285016106e6565b91505092915050565b60008160070b9050919050565b61073e81610728565b82525050565b600081519050919050565b600082825260208201905092915050565b60005b8381101561077e578082015181840152602081019050610763565b8381111561078d576000848401525b50505050565b6000601f19601f8301169050919050565b60006107af82610744565b6107b9818561074f565b93506107c9818560208601610760565b6107d281610793565b840191505092915050565b6000819050919050565b6107f0816107dd565b82525050565b600073ffffffffffffffffffffffffffffffffffffffff82169050919050565b6000610821826107f6565b9050919050565b61083181610816565b82525050565b600060e08201905061084c600083018a610735565b818103602083015261085e81896107a4565b9050818103604083015261087281886107a4565b905061088160608301876107e7565b61088e6080830186610828565b61089b60a0830185610735565b6108a860c0830184610735565b98975050505050505050565b6108bd816106c5565b82525050565b60006020820190506108d860008301846108b4565b92915050565b6108e781610728565b81146108f257600080fd5b50565b600081359050610904816108de565b92915050565b600080fd5b600080fd5b7f4e487b7100000000000000000000000000000000000000000000000000000000600052604160045260246000fd5b61094c82610793565b810181811067ffffffffffffffff8211171561096b5761096a610914565b5b80604052505050565b600061097e6106b1565b905061098a8282610943565b919050565b600067ffffffffffffffff8211156109aa576109a9610914565b5b6109b382610793565b9050602081019050919050565b82818337600083830152505050565b60006109e26109dd8461098f565b610974565b9050828152602081018484840111156109fe576109fd61090f565b5b610a098482856109c0565b509392505050565b600082601f830112610a2657610a2561090a565b5b8135610a368482602086016109cf565b91505092915050565b610a48816107dd565b8114610a5357600080fd5b50565b600081359050610a6581610a3f565b92915050565b60008060008060008060c08789031215610a8857610a876106bb565b5b6000610a9689828a016108f5565b965050602087013567ffffffffffffffff811115610ab757610ab66106c0565b5b610ac389828a01610a11565b955050604087013567ffffffffffffffff811115610ae457610ae36106c0565b5b610af089828a01610a11565b9450506060610b0189828a01610a56565b9350506080610b1289828a016108f5565b92505060a0610b2389828a016108f5565b9150509295509295509295565b600061010082019050610b46600083018b6108b4565b610b53602083018a610735565b8181036040830152610b6581896107a4565b90508181036060830152610b7981886107a4565b9050610b8860808301876107e7565b610b9560a0830186610828565b610ba260c0830185610735565b610baf60e0830184610735565b9998505050505050505050565b7f4e487b7100000000000000000000000000000000000000000000000000000000600052602260045260246000fd5b60006002820490506001821680610c0357607f821691505b602082108103610c1657610c15610bbc565b5b50919050565b7f4e487b7100000000000000000000000000000000000000000000000000000000600052601160045260246000fd5b6000610c56826106c5565b9150610c61836106c5565b9250827fffffffffffffffffffffffffffffffffffffffffffffffffffffffffffffffff03821115610c9657610c95610c1c565b5b82820190509291505056fea2646970667358221220c2c071d761b3fe8a909f7344dc5a5a084b86a10a9285d52f0e68e49a103b38dc64736f6c634300080d0033",
  "immutableReferences": {},
  "source": "// SPDX-License-Identifier: MIT\npragma solidity >=0.4.25 <0.9.0;\n\ncontract VaccineTracking {\n\n    struct vaccine_batch{\n        int64 batch_num;\n        string vaccine_type;\n        string location;\n        int temperature;\n        address user;\n        int64 received_at;\n        int64 delivered_at;\n    }\n\n    mapping(uint => vaccine_batch) vaccine_batch_logs;\n    uint[] public batch_index;\n\n    function createVaccineBatch (\n        int64 batch_num, \n        string memory vaccine_type, \n        string memory location, \n        int temperature, \n        int64 received_at, \n        int64 delivered_at\n        ) public {\n\n        vaccine_batch storage new_vaccine_batch = vaccine_batch_logs[batch_index.length + 1];\n        new_vaccine_batch.batch_num = batch_num;\n        new_vaccine_batch.vaccine_type = vaccine_type;\n        new_vaccine_batch.location = location;\n        new_vaccine_batch.temperature = temperature;\n        new_vaccine_batch.user = msg.sender;\n        new_vaccine_batch.received_at = received_at;\n        new_vaccine_batch.delivered_at = delivered_at;\n        batch_index.push(batch_index.length + 1);\n\n    }\n\n    function getVaccineBatch(uint index) public view returns (\n        int64,\n        string memory,\n        string memory,\n        int,\n        address,\n        int64,\n        int64\n    ){\n        vaccine_batch storage batch = vaccine_batch_logs[index];\n        return(\n            batch.batch_num,\n            batch.vaccine_type,\n            batch.location,\n            batch.temperature,\n            batch.user,\n            batch.received_at,\n            batch.delivered_at\n        );\n    }\n\n    function getLastVaccineBatch() public view returns(\n        uint,\n        int64,\n        string memory,\n        string memory,\n        int,\n        address,\n        int64,\n        int64\n    ){\n        vaccine_batch storage batch = vaccine_batch_logs[batch_index.length];\n        return(\n            batch_index.length,\n            batch.batch_num,\n            batch.vaccine_type,\n            batch.location,\n            batch.temperature,\n            batch.user,\n            batch.received_at,\n            batch.delivered_at\n        );\n    }\n\n}",
  "sourcePath": "/Users/willi/Desktop/repos/vaccine-tracking-blockchain/contracts/VaccineTracking.sol",
  "compiler": {
    "name": "solc",
    "version": "0.8.13+commit.abaa5c0e.Emscripten.clang"
  },
  "schemaVersion": "3.4.7",
  "updatedAt": "2022-06-07T11:36:22.332Z",
  "networkType": "ethereum",
  "devdoc": {
    "kind": "dev",
    "methods": {},
    "version": 1
  },
  "userdoc": {
    "kind": "user",
    "methods": {},
    "version": 1
  }
}