{
  "contractName": "VaccineTracking",
  "abi": [
    {
      "inputs": [
        {
          "internalType": "uint256",
          "name": "",
          "type": "uint256"
        }
      ],
      "name": "vaccine_batch_logs",
      "outputs": [
        {
          "internalType": "uint256",
          "name": "batch_num",
          "type": "uint256"
        },
        {
          "internalType": "string",
          "name": "vaccine_type",
          "type": "string"
        },
        {
          "internalType": "string",
          "name": "location",
          "type": "string"
        },
        {
          "internalType": "int256",
          "name": "temperature",
          "type": "int256"
        },
        {
          "internalType": "address",
          "name": "user",
          "type": "address"
        },
        {
          "internalType": "string",
          "name": "timestamp",
          "type": "string"
        }
      ],
      "stateMutability": "view",
      "type": "function",
      "constant": true
    },
    {
      "inputs": [
        {
          "internalType": "uint256",
          "name": "batch_num",
          "type": "uint256"
        },
        {
          "internalType": "string",
          "name": "vaccine_type",
          "type": "string"
        },
        {
          "internalType": "string",
          "name": "location",
          "type": "string"
        },
        {
          "internalType": "int256",
          "name": "temperature",
          "type": "int256"
        },
        {
          "internalType": "string",
          "name": "timestamp",
          "type": "string"
        }
      ],
      "name": "createVaccineBatch",
      "outputs": [],
      "stateMutability": "nonpayable",
      "type": "function"
    },
    {
      "inputs": [],
      "name": "getVaccineBatches",
      "outputs": [
        {
          "components": [
            {
              "internalType": "uint256",
              "name": "batch_num",
              "type": "uint256"
            },
            {
              "internalType": "string",
              "name": "vaccine_type",
              "type": "string"
            },
            {
              "internalType": "string",
              "name": "location",
              "type": "string"
            },
            {
              "internalType": "int256",
              "name": "temperature",
              "type": "int256"
            },
            {
              "internalType": "address",
              "name": "user",
              "type": "address"
            },
            {
              "internalType": "string",
              "name": "timestamp",
              "type": "string"
            }
          ],
          "internalType": "struct VaccineTracking.vaccine_batch_log[]",
          "name": "",
          "type": "tuple[]"
        }
      ],
      "stateMutability": "view",
      "type": "function",
      "constant": true
    }
  ],
  "bytecode": "0x608060405234801561001057600080fd5b50610dab806100206000396000f3fe608060405234801561001057600080fd5b50600436106100415760003560e01c80630da9cef5146100465780638a59e4bd14610062578063c5bd966b14610097575b600080fd5b610060600480360381019061005b91906108ca565b6100b5565b005b61007c60048036038101906100779190610999565b6101de565b60405161008e96959493929190610aad565b60405180910390f35b61009f6103e2565b6040516100ac9190610cf3565b60405180910390f35b60006040518060c001604052808781526020018681526020018581526020018481526020013373ffffffffffffffffffffffffffffffffffffffff168152602001838152509080600181540180825580915050600190039060005260206000209060060201600090919091909150600082015181600001556020820151816001019080519060200190610149929190610661565b506040820151816002019080519060200190610166929190610661565b506060820151816003015560808201518160040160006101000a81548173ffffffffffffffffffffffffffffffffffffffff021916908373ffffffffffffffffffffffffffffffffffffffff16021790555060a08201518160050190805190602001906101d4929190610661565b5050505050505050565b600081815481106101ee57600080fd5b906000526020600020906006020160009150905080600001549080600101805461021790610d44565b80601f016020809104026020016040519081016040528092919081815260200182805461024390610d44565b80156102905780601f1061026557610100808354040283529160200191610290565b820191906000526020600020905b81548152906001019060200180831161027357829003601f168201915b5050505050908060020180546102a590610d44565b80601f01602080910402602001604051908101604052809291908181526020018280546102d190610d44565b801561031e5780601f106102f35761010080835404028352916020019161031e565b820191906000526020600020905b81548152906001019060200180831161030157829003601f168201915b5050505050908060030154908060040160009054906101000a900473ffffffffffffffffffffffffffffffffffffffff169080600501805461035f90610d44565b80601f016020809104026020016040519081016040528092919081815260200182805461038b90610d44565b80156103d85780601f106103ad576101008083540402835291602001916103d8565b820191906000526020600020905b8154815290600101906020018083116103bb57829003601f168201915b5050505050905086565b60606000805480602002602001604051908101604052809291908181526020016000905b8282101561065857838290600052602060002090600602016040518060c00160405290816000820154815260200160018201805461044390610d44565b80601f016020809104026020016040519081016040528092919081815260200182805461046f90610d44565b80156104bc5780601f10610491576101008083540402835291602001916104bc565b820191906000526020600020905b81548152906001019060200180831161049f57829003601f168201915b505050505081526020016002820180546104d590610d44565b80601f016020809104026020016040519081016040528092919081815260200182805461050190610d44565b801561054e5780601f106105235761010080835404028352916020019161054e565b820191906000526020600020905b81548152906001019060200180831161053157829003601f168201915b50505050508152602001600382015481526020016004820160009054906101000a900473ffffffffffffffffffffffffffffffffffffffff1673ffffffffffffffffffffffffffffffffffffffff1673ffffffffffffffffffffffffffffffffffffffff1681526020016005820180546105c790610d44565b80601f01602080910402602001604051908101604052809291908181526020018280546105f390610d44565b80156106405780601f1061061557610100808354040283529160200191610640565b820191906000526020600020905b81548152906001019060200180831161062357829003601f168201915b50505050508152505081526020019060010190610406565b50505050905090565b82805461066d90610d44565b90600052602060002090601f01602090048101928261068f57600085556106d6565b82601f106106a857805160ff19168380011785556106d6565b828001600101855582156106d6579182015b828111156106d55782518255916020019190600101906106ba565b5b5090506106e391906106e7565b5090565b5b808211156107005760008160009055506001016106e8565b5090565b6000604051905090565b600080fd5b600080fd5b6000819050919050565b61072b81610718565b811461073657600080fd5b50565b60008135905061074881610722565b92915050565b600080fd5b600080fd5b6000601f19601f8301169050919050565b7f4e487b7100000000000000000000000000000000000000000000000000000000600052604160045260246000fd5b6107a182610758565b810181811067ffffffffffffffff821117156107c0576107bf610769565b5b80604052505050565b60006107d3610704565b90506107df8282610798565b919050565b600067ffffffffffffffff8211156107ff576107fe610769565b5b61080882610758565b9050602081019050919050565b82818337600083830152505050565b6000610837610832846107e4565b6107c9565b90508281526020810184848401111561085357610852610753565b5b61085e848285610815565b509392505050565b600082601f83011261087b5761087a61074e565b5b813561088b848260208601610824565b91505092915050565b6000819050919050565b6108a781610894565b81146108b257600080fd5b50565b6000813590506108c48161089e565b92915050565b600080600080600060a086880312156108e6576108e561070e565b5b60006108f488828901610739565b955050602086013567ffffffffffffffff81111561091557610914610713565b5b61092188828901610866565b945050604086013567ffffffffffffffff81111561094257610941610713565b5b61094e88828901610866565b935050606061095f888289016108b5565b925050608086013567ffffffffffffffff8111156109805761097f610713565b5b61098c88828901610866565b9150509295509295909350565b6000602082840312156109af576109ae61070e565b5b60006109bd84828501610739565b91505092915050565b6109cf81610718565b82525050565b600081519050919050565b600082825260208201905092915050565b60005b83811015610a0f5780820151818401526020810190506109f4565b83811115610a1e576000848401525b50505050565b6000610a2f826109d5565b610a3981856109e0565b9350610a498185602086016109f1565b610a5281610758565b840191505092915050565b610a6681610894565b82525050565b600073ffffffffffffffffffffffffffffffffffffffff82169050919050565b6000610a9782610a6c565b9050919050565b610aa781610a8c565b82525050565b600060c082019050610ac260008301896109c6565b8181036020830152610ad48188610a24565b90508181036040830152610ae88187610a24565b9050610af76060830186610a5d565b610b046080830185610a9e565b81810360a0830152610b168184610a24565b9050979650505050505050565b600081519050919050565b600082825260208201905092915050565b6000819050602082019050919050565b610b5881610718565b82525050565b600082825260208201905092915050565b6000610b7a826109d5565b610b848185610b5e565b9350610b948185602086016109f1565b610b9d81610758565b840191505092915050565b610bb181610894565b82525050565b610bc081610a8c565b82525050565b600060c083016000830151610bde6000860182610b4f565b5060208301518482036020860152610bf68282610b6f565b91505060408301518482036040860152610c108282610b6f565b9150506060830151610c256060860182610ba8565b506080830151610c386080860182610bb7565b5060a083015184820360a0860152610c508282610b6f565b9150508091505092915050565b6000610c698383610bc6565b905092915050565b6000602082019050919050565b6000610c8982610b23565b610c938185610b2e565b935083602082028501610ca585610b3f565b8060005b85811015610ce15784840389528151610cc28582610c5d565b9450610ccd83610c71565b925060208a01995050600181019050610ca9565b50829750879550505050505092915050565b60006020820190508181036000830152610d0d8184610c7e565b905092915050565b7f4e487b7100000000000000000000000000000000000000000000000000000000600052602260045260246000fd5b60006002820490506001821680610d5c57607f821691505b602082108103610d6f57610d6e610d15565b5b5091905056fea2646970667358221220e738e76310be4163a050a2233fe1966c8e7b0a863cd0e243e687cc650d8bef8264736f6c634300080d0033",
  "immutableReferences": {},
  "source": "// SPDX-License-Identifier: MIT\npragma solidity >=0.7.0 <0.9.0;\n\ncontract VaccineTracking {\n\n    struct vaccine_batch_log{\n        uint batch_num;\n        string vaccine_type;\n        string location;\n        int temperature;\n        address user;\n        string timestamp;\n    }\n\n    vaccine_batch_log[] public vaccine_batch_logs;\n\n    function createVaccineBatch (\n        uint batch_num,\n        string memory vaccine_type,\n        string memory location,\n        int temperature,\n        string memory timestamp\n    ) public {\n\n        vaccine_batch_logs.push(vaccine_batch_log({\n            batch_num: batch_num,\n            vaccine_type: vaccine_type,\n            location: location,\n            temperature: temperature,\n            user: msg.sender,\n            timestamp: timestamp\n        }));\n\n    }\n\n    function getVaccineBatches() public view returns (vaccine_batch_log[] memory) {\n        return vaccine_batch_logs;\n    }\n\n}",
  "sourcePath": "/Users/willi/Desktop/repos/vaccine-tracking-blockchain/contracts/VaccineTracking.sol",
  "compiler": {
    "name": "solc",
    "version": "0.8.13+commit.abaa5c0e.Emscripten.clang"
  },
  "schemaVersion": "3.4.7",
  "updatedAt": "2022-06-07T20:41:28.773Z",
  "networkType": "ethereum",
  "devdoc": {
    "kind": "dev",
    "methods": {},
    "version": 1
  },
  "userdoc": {
    "kind": "user",
    "methods": {},
    "version": 1
  }
}