{
  "contractName": "VaccineTracking",
  "abi": [
    {
      "inputs": [
        {
          "internalType": "uint256",
          "name": "",
          "type": "uint256"
        }
      ],
      "name": "vaccine_batch_logs",
      "outputs": [
        {
          "internalType": "uint256",
          "name": "batch_num",
          "type": "uint256"
        },
        {
          "internalType": "string",
          "name": "vaccine_type",
          "type": "string"
        },
        {
          "internalType": "string",
          "name": "location",
          "type": "string"
        },
        {
          "internalType": "int256",
          "name": "temperature",
          "type": "int256"
        },
        {
          "internalType": "address",
          "name": "user",
          "type": "address"
        },
        {
          "internalType": "uint256",
          "name": "timestamp",
          "type": "uint256"
        }
      ],
      "stateMutability": "view",
      "type": "function",
      "constant": true
    },
    {
      "inputs": [
        {
          "internalType": "uint256",
          "name": "batch_num",
          "type": "uint256"
        },
        {
          "internalType": "string",
          "name": "vaccine_type",
          "type": "string"
        },
        {
          "internalType": "string",
          "name": "location",
          "type": "string"
        },
        {
          "internalType": "int256",
          "name": "temperature",
          "type": "int256"
        },
        {
          "internalType": "uint256",
          "name": "timestamp",
          "type": "uint256"
        }
      ],
      "name": "createVaccineBatch",
      "outputs": [],
      "stateMutability": "nonpayable",
      "type": "function"
    },
    {
      "inputs": [],
      "name": "getVaccineBatches",
      "outputs": [
        {
          "components": [
            {
              "internalType": "uint256",
              "name": "batch_num",
              "type": "uint256"
            },
            {
              "internalType": "string",
              "name": "vaccine_type",
              "type": "string"
            },
            {
              "internalType": "string",
              "name": "location",
              "type": "string"
            },
            {
              "internalType": "int256",
              "name": "temperature",
              "type": "int256"
            },
            {
              "internalType": "address",
              "name": "user",
              "type": "address"
            },
            {
              "internalType": "uint256",
              "name": "timestamp",
              "type": "uint256"
            }
          ],
          "internalType": "struct VaccineTracking.vaccine_batch_log[]",
          "name": "",
          "type": "tuple[]"
        }
      ],
      "stateMutability": "view",
      "type": "function",
      "constant": true
    }
  ],
  "bytecode": "0x608060405234801561001057600080fd5b50610c5e806100206000396000f3fe608060405234801561001057600080fd5b50600436106100415760003560e01c806373b05a0e146100465780638a59e4bd14610062578063c5bd966b14610097575b600080fd5b610060600480360381019061005b91906107a7565b6100b5565b005b61007c6004803603810190610077919061085a565b6101cb565b60405161008e9695949392919061096e565b60405180910390f35b61009f610347565b6040516100ac9190610ba6565b60405180910390f35b60006040518060c001604052808781526020018681526020018581526020018481526020013373ffffffffffffffffffffffffffffffffffffffff16815260200183815250908060018154018082558091505060019003906000526020600020906006020160009091909190915060008201518160000155602082015181600101908051906020019061014992919061053e565b50604082015181600201908051906020019061016692919061053e565b506060820151816003015560808201518160040160006101000a81548173ffffffffffffffffffffffffffffffffffffffff021916908373ffffffffffffffffffffffffffffffffffffffff16021790555060a0820151816005015550505050505050565b600081815481106101db57600080fd5b906000526020600020906006020160009150905080600001549080600101805461020490610bf7565b80601f016020809104026020016040519081016040528092919081815260200182805461023090610bf7565b801561027d5780601f106102525761010080835404028352916020019161027d565b820191906000526020600020905b81548152906001019060200180831161026057829003601f168201915b50505050509080600201805461029290610bf7565b80601f01602080910402602001604051908101604052809291908181526020018280546102be90610bf7565b801561030b5780601f106102e05761010080835404028352916020019161030b565b820191906000526020600020905b8154815290600101906020018083116102ee57829003601f168201915b5050505050908060030154908060040160009054906101000a900473ffffffffffffffffffffffffffffffffffffffff16908060050154905086565b60606000805480602002602001604051908101604052809291908181526020016000905b8282101561053557838290600052602060002090600602016040518060c0016040529081600082015481526020016001820180546103a890610bf7565b80601f01602080910402602001604051908101604052809291908181526020018280546103d490610bf7565b80156104215780601f106103f657610100808354040283529160200191610421565b820191906000526020600020905b81548152906001019060200180831161040457829003601f168201915b5050505050815260200160028201805461043a90610bf7565b80601f016020809104026020016040519081016040528092919081815260200182805461046690610bf7565b80156104b35780601f10610488576101008083540402835291602001916104b3565b820191906000526020600020905b81548152906001019060200180831161049657829003601f168201915b50505050508152602001600382015481526020016004820160009054906101000a900473ffffffffffffffffffffffffffffffffffffffff1673ffffffffffffffffffffffffffffffffffffffff1673ffffffffffffffffffffffffffffffffffffffff1681526020016005820154815250508152602001906001019061036b565b50505050905090565b82805461054a90610bf7565b90600052602060002090601f01602090048101928261056c57600085556105b3565b82601f1061058557805160ff19168380011785556105b3565b828001600101855582156105b3579182015b828111156105b2578251825591602001919060010190610597565b5b5090506105c091906105c4565b5090565b5b808211156105dd5760008160009055506001016105c5565b5090565b6000604051905090565b600080fd5b600080fd5b6000819050919050565b610608816105f5565b811461061357600080fd5b50565b600081359050610625816105ff565b92915050565b600080fd5b600080fd5b6000601f19601f8301169050919050565b7f4e487b7100000000000000000000000000000000000000000000000000000000600052604160045260246000fd5b61067e82610635565b810181811067ffffffffffffffff8211171561069d5761069c610646565b5b80604052505050565b60006106b06105e1565b90506106bc8282610675565b919050565b600067ffffffffffffffff8211156106dc576106db610646565b5b6106e582610635565b9050602081019050919050565b82818337600083830152505050565b600061071461070f846106c1565b6106a6565b9050828152602081018484840111156107305761072f610630565b5b61073b8482856106f2565b509392505050565b600082601f8301126107585761075761062b565b5b8135610768848260208601610701565b91505092915050565b6000819050919050565b61078481610771565b811461078f57600080fd5b50565b6000813590506107a18161077b565b92915050565b600080600080600060a086880312156107c3576107c26105eb565b5b60006107d188828901610616565b955050602086013567ffffffffffffffff8111156107f2576107f16105f0565b5b6107fe88828901610743565b945050604086013567ffffffffffffffff81111561081f5761081e6105f0565b5b61082b88828901610743565b935050606061083c88828901610792565b925050608061084d88828901610616565b9150509295509295909350565b6000602082840312156108705761086f6105eb565b5b600061087e84828501610616565b91505092915050565b610890816105f5565b82525050565b600081519050919050565b600082825260208201905092915050565b60005b838110156108d05780820151818401526020810190506108b5565b838111156108df576000848401525b50505050565b60006108f082610896565b6108fa81856108a1565b935061090a8185602086016108b2565b61091381610635565b840191505092915050565b61092781610771565b82525050565b600073ffffffffffffffffffffffffffffffffffffffff82169050919050565b60006109588261092d565b9050919050565b6109688161094d565b82525050565b600060c0820190506109836000830189610887565b818103602083015261099581886108e5565b905081810360408301526109a981876108e5565b90506109b8606083018661091e565b6109c5608083018561095f565b6109d260a0830184610887565b979650505050505050565b600081519050919050565b600082825260208201905092915050565b6000819050602082019050919050565b610a12816105f5565b82525050565b600082825260208201905092915050565b6000610a3482610896565b610a3e8185610a18565b9350610a4e8185602086016108b2565b610a5781610635565b840191505092915050565b610a6b81610771565b82525050565b610a7a8161094d565b82525050565b600060c083016000830151610a986000860182610a09565b5060208301518482036020860152610ab08282610a29565b91505060408301518482036040860152610aca8282610a29565b9150506060830151610adf6060860182610a62565b506080830151610af26080860182610a71565b5060a0830151610b0560a0860182610a09565b508091505092915050565b6000610b1c8383610a80565b905092915050565b6000602082019050919050565b6000610b3c826109dd565b610b4681856109e8565b935083602082028501610b58856109f9565b8060005b85811015610b945784840389528151610b758582610b10565b9450610b8083610b24565b925060208a01995050600181019050610b5c565b50829750879550505050505092915050565b60006020820190508181036000830152610bc08184610b31565b905092915050565b7f4e487b7100000000000000000000000000000000000000000000000000000000600052602260045260246000fd5b60006002820490506001821680610c0f57607f821691505b602082108103610c2257610c21610bc8565b5b5091905056fea2646970667358221220a5a46fcf5da23f71f3f06b37ec14deef51c80e6d7e27a06a08675b903783ee1864736f6c634300080d0033",
  "immutableReferences": {},
  "source": "// SPDX-License-Identifier: MIT\npragma solidity >=0.4.25 <0.9.0;\n\ncontract VaccineTracking {\n\n    struct vaccine_batch_log{\n        uint batch_num;\n        string vaccine_type;\n        string location;\n        int temperature;\n        address user;\n        uint timestamp;\n    }\n\n    vaccine_batch_log[] public vaccine_batch_logs;\n\n    function createVaccineBatch (\n        uint batch_num,\n        string memory vaccine_type,\n        string memory location,\n        int temperature,\n        uint timestamp\n    ) public {\n\n        vaccine_batch_logs.push(vaccine_batch_log({\n            batch_num: batch_num,\n            vaccine_type: vaccine_type,\n            location: location,\n            temperature: temperature,\n            user: msg.sender,\n            timestamp: timestamp\n        }));\n\n    }\n\n    function getVaccineBatches() public view returns (vaccine_batch_log[] memory) {\n        return(vaccine_batch_logs);\n    }\n\n}",
  "sourcePath": "/Users/willi/Desktop/repos/vaccine-tracking-blockchain/contracts/VaccineTracking.sol",
  "compiler": {
    "name": "solc",
    "version": "0.8.13+commit.abaa5c0e.Emscripten.clang"
  },
  "schemaVersion": "3.4.7",
  "updatedAt": "2022-06-07T15:31:09.386Z",
  "networkType": "ethereum",
  "devdoc": {
    "kind": "dev",
    "methods": {},
    "version": 1
  },
  "userdoc": {
    "kind": "user",
    "methods": {},
    "version": 1
  }
}