{
  "contractName": "VaccineTracking",
  "abi": [
    {
      "inputs": [
        {
          "internalType": "int64",
          "name": "batch_num",
          "type": "int64"
        },
        {
          "internalType": "int256",
          "name": "temperature",
          "type": "int256"
        },
        {
          "internalType": "int64",
          "name": "received_at",
          "type": "int64"
        },
        {
          "internalType": "int64",
          "name": "delivered_at",
          "type": "int64"
        }
      ],
      "name": "createVaccineBatch",
      "outputs": [],
      "stateMutability": "nonpayable",
      "type": "function"
    },
    {
      "inputs": [
        {
          "internalType": "int64",
          "name": "batchNum",
          "type": "int64"
        }
      ],
      "name": "getVaccineBatch",
      "outputs": [
        {
          "internalType": "int64",
          "name": "",
          "type": "int64"
        },
        {
          "internalType": "int256",
          "name": "",
          "type": "int256"
        },
        {
          "internalType": "address",
          "name": "",
          "type": "address"
        },
        {
          "internalType": "int64",
          "name": "",
          "type": "int64"
        },
        {
          "internalType": "int64",
          "name": "",
          "type": "int64"
        }
      ],
      "stateMutability": "view",
      "type": "function",
      "constant": true
    }
  ],
  "bytecode": "0x608060405234801561001057600080fd5b5061040b806100206000396000f3fe608060405234801561001057600080fd5b50600436106100365760003560e01c806317e961371461003b578063dbc269b61461006f575b600080fd5b61005560048036038101906100509190610259565b61008b565b6040516100669594939291906102ef565b60405180910390f35b6100896004803603810190610084919061036e565b610122565b005b6000806000806000806000808860070b60070b815260200190815260200160002090508060000160009054906101000a900460070b81600101548260020160009054906101000a900473ffffffffffffffffffffffffffffffffffffffff168360020160149054906101000a900460070b8460030160009054906101000a900460070b955095509550955095505091939590929450565b60008060008660070b60070b81526020019081526020016000209050848160000160006101000a81548167ffffffffffffffff021916908360070b67ffffffffffffffff160217905550838160010181905550338160020160006101000a81548173ffffffffffffffffffffffffffffffffffffffff021916908373ffffffffffffffffffffffffffffffffffffffff160217905550828160020160146101000a81548167ffffffffffffffff021916908360070b67ffffffffffffffff160217905550818160030160006101000a81548167ffffffffffffffff021916908360070b67ffffffffffffffff1602179055505050505050565b600080fd5b60008160070b9050919050565b61023681610220565b811461024157600080fd5b50565b6000813590506102538161022d565b92915050565b60006020828403121561026f5761026e61021b565b5b600061027d84828501610244565b91505092915050565b61028f81610220565b82525050565b6000819050919050565b6102a881610295565b82525050565b600073ffffffffffffffffffffffffffffffffffffffff82169050919050565b60006102d9826102ae565b9050919050565b6102e9816102ce565b82525050565b600060a0820190506103046000830188610286565b610311602083018761029f565b61031e60408301866102e0565b61032b6060830185610286565b6103386080830184610286565b9695505050505050565b61034b81610295565b811461035657600080fd5b50565b60008135905061036881610342565b92915050565b600080600080608085870312156103885761038761021b565b5b600061039687828801610244565b94505060206103a787828801610359565b93505060406103b887828801610244565b92505060606103c987828801610244565b9150509295919450925056fea264697066735822122077836c56b452fd23fcf0adc50d13ffac3bd0a621fab8c90074dc6547e0fe63a464736f6c634300080d0033",
  "immutableReferences": {},
  "source": "// SPDX-License-Identifier: MIT\npragma solidity >=0.4.25 <0.9.0;\n\ncontract VaccineTracking {\n\n    struct vaccine_batch{\n        int64 batch_num;\n        // string vaccine_type;\n        // string location;\n        int temperature;\n        address user;\n        int64 received_at;\n        int64 delivered_at;\n    }\n\n    mapping(int64 => vaccine_batch) vaccine_batch_logs;\n\n    function createVaccineBatch (\n        int64 batch_num, \n        // string vaccine_type memory, \n        // string location memory, \n        int temperature, \n        int64 received_at, \n        int64 delivered_at\n        ) public {\n\n        vaccine_batch storage new_vaccine_batch = vaccine_batch_logs[batch_num];\n        new_vaccine_batch.batch_num = batch_num;\n        // new_vaccine_batch.vaccine_type = vaccine_type;\n        // new_vaccine_batch.location = location;\n        new_vaccine_batch.temperature = temperature;\n        new_vaccine_batch.user = msg.sender;\n        new_vaccine_batch.received_at = received_at;\n        new_vaccine_batch.delivered_at = delivered_at;\n\n    }\n\n    function getVaccineBatch(int64 batchNum) public view returns (\n        int64,\n        // string,\n        // string,\n        int,\n        address,\n        int64,\n        int64\n    ){\n        vaccine_batch storage batch = vaccine_batch_logs[batchNum];\n        return(\n            batch.batch_num,\n            // batch.vaccine_type\n            // batch.location\n            batch.temperature,\n            batch.user,\n            batch.received_at,\n            batch.delivered_at\n        );\n    }\n\n    // function getVaccineBatchLogs (batch_num) public {\n\n    // }\n\n}",
  "sourcePath": "/Users/joseblock/Documents/Blockchain/ProyectoFinal/contracts/VaccineTracking.sol",
  "compiler": {
    "name": "solc",
    "version": "0.8.13+commit.abaa5c0e.Emscripten.clang"
  },
  "schemaVersion": "3.4.7",
  "updatedAt": "2022-06-07T02:44:06.160Z",
  "networkType": "ethereum",
  "devdoc": {
    "kind": "dev",
    "methods": {},
    "version": 1
  },
  "userdoc": {
    "kind": "user",
    "methods": {},
    "version": 1
  }
}