{
  "contractName": "VaccineTracking",
  "abi": [
    {
      "inputs": [
        {
          "internalType": "int64",
          "name": "batch_num",
          "type": "int64"
        },
        {
          "internalType": "string",
          "name": "vaccine_type",
          "type": "string"
        },
        {
          "internalType": "string",
          "name": "location",
          "type": "string"
        },
        {
          "internalType": "int256",
          "name": "temperature",
          "type": "int256"
        },
        {
          "internalType": "int64",
          "name": "received_at",
          "type": "int64"
        },
        {
          "internalType": "int64",
          "name": "delivered_at",
          "type": "int64"
        }
      ],
      "name": "createVaccineBatch",
      "outputs": [],
      "stateMutability": "nonpayable",
      "type": "function"
    },
    {
      "inputs": [
        {
          "internalType": "int64",
          "name": "batchNum",
          "type": "int64"
        }
      ],
      "name": "getVaccineBatch",
      "outputs": [
        {
          "internalType": "int64",
          "name": "",
          "type": "int64"
        },
        {
          "internalType": "string",
          "name": "",
          "type": "string"
        },
        {
          "internalType": "string",
          "name": "",
          "type": "string"
        },
        {
          "internalType": "int256",
          "name": "",
          "type": "int256"
        },
        {
          "internalType": "address",
          "name": "",
          "type": "address"
        },
        {
          "internalType": "int64",
          "name": "",
          "type": "int64"
        },
        {
          "internalType": "int64",
          "name": "",
          "type": "int64"
        }
      ],
      "stateMutability": "view",
      "type": "function",
      "constant": true
    }
  ],
  "bytecode": "0x608060405234801561001057600080fd5b506108d3806100206000396000f3fe608060405234801561001057600080fd5b50600436106100365760003560e01c806317e961371461003b578063573352ad14610071575b600080fd5b6100556004803603810190610050919061046b565b61008d565b604051610068979695949392919061059a565b60405180910390f35b61008b60048036038101906100869190610778565b61024e565b005b600060608060008060008060008060008a60070b60070b815260200190815260200160002090508060000160009054906101000a900460070b816001018260020183600301548460040160009054906101000a900473ffffffffffffffffffffffffffffffffffffffff168560040160149054906101000a900460070b8660050160009054906101000a900460070b8580546101289061086c565b80601f01602080910402602001604051908101604052809291908181526020018280546101549061086c565b80156101a15780601f10610176576101008083540402835291602001916101a1565b820191906000526020600020905b81548152906001019060200180831161018457829003601f168201915b505050505095508480546101b49061086c565b80601f01602080910402602001604051908101604052809291908181526020018280546101e09061086c565b801561022d5780601f106102025761010080835404028352916020019161022d565b820191906000526020600020905b81548152906001019060200180831161021057829003601f168201915b50505050509450975097509750975097509750975050919395979092949650565b60008060008860070b60070b81526020019081526020016000209050868160000160006101000a81548167ffffffffffffffff021916908360070b67ffffffffffffffff160217905550858160010190805190602001906102b092919061037b565b50848160020190805190602001906102c992919061037b565b50838160030181905550338160040160006101000a81548173ffffffffffffffffffffffffffffffffffffffff021916908373ffffffffffffffffffffffffffffffffffffffff160217905550828160040160146101000a81548167ffffffffffffffff021916908360070b67ffffffffffffffff160217905550818160050160006101000a81548167ffffffffffffffff021916908360070b67ffffffffffffffff16021790555050505050505050565b8280546103879061086c565b90600052602060002090601f0160209004810192826103a957600085556103f0565b82601f106103c257805160ff19168380011785556103f0565b828001600101855582156103f0579182015b828111156103ef5782518255916020019190600101906103d4565b5b5090506103fd9190610401565b5090565b5b8082111561041a576000816000905550600101610402565b5090565b6000604051905090565b600080fd5b600080fd5b60008160070b9050919050565b61044881610432565b811461045357600080fd5b50565b6000813590506104658161043f565b92915050565b60006020828403121561048157610480610428565b5b600061048f84828501610456565b91505092915050565b6104a181610432565b82525050565b600081519050919050565b600082825260208201905092915050565b60005b838110156104e15780820151818401526020810190506104c6565b838111156104f0576000848401525b50505050565b6000601f19601f8301169050919050565b6000610512826104a7565b61051c81856104b2565b935061052c8185602086016104c3565b610535816104f6565b840191505092915050565b6000819050919050565b61055381610540565b82525050565b600073ffffffffffffffffffffffffffffffffffffffff82169050919050565b600061058482610559565b9050919050565b61059481610579565b82525050565b600060e0820190506105af600083018a610498565b81810360208301526105c18189610507565b905081810360408301526105d58188610507565b90506105e4606083018761054a565b6105f1608083018661058b565b6105fe60a0830185610498565b61060b60c0830184610498565b98975050505050505050565b600080fd5b600080fd5b7f4e487b7100000000000000000000000000000000000000000000000000000000600052604160045260246000fd5b610659826104f6565b810181811067ffffffffffffffff8211171561067857610677610621565b5b80604052505050565b600061068b61041e565b90506106978282610650565b919050565b600067ffffffffffffffff8211156106b7576106b6610621565b5b6106c0826104f6565b9050602081019050919050565b82818337600083830152505050565b60006106ef6106ea8461069c565b610681565b90508281526020810184848401111561070b5761070a61061c565b5b6107168482856106cd565b509392505050565b600082601f83011261073357610732610617565b5b81356107438482602086016106dc565b91505092915050565b61075581610540565b811461076057600080fd5b50565b6000813590506107728161074c565b92915050565b60008060008060008060c0878903121561079557610794610428565b5b60006107a389828a01610456565b965050602087013567ffffffffffffffff8111156107c4576107c361042d565b5b6107d089828a0161071e565b955050604087013567ffffffffffffffff8111156107f1576107f061042d565b5b6107fd89828a0161071e565b945050606061080e89828a01610763565b935050608061081f89828a01610456565b92505060a061083089828a01610456565b9150509295509295509295565b7f4e487b7100000000000000000000000000000000000000000000000000000000600052602260045260246000fd5b6000600282049050600182168061088457607f821691505b6020821081036108975761089661083d565b5b5091905056fea26469706673582212207129034969baddd4182db18978135cc592fa7ad6b9f48b90c2791b835edfbe5964736f6c634300080d0033",
  "immutableReferences": {},
  "source": "// SPDX-License-Identifier: MIT\npragma solidity >=0.4.25 <0.9.0;\n\ncontract VaccineTracking {\n\n    struct vaccine_batch{\n        int64 batch_num;\n        string vaccine_type;\n        string location;\n        int temperature;\n        address user;\n        int64 received_at;\n        int64 delivered_at;\n    }\n\n    mapping(int64 => vaccine_batch) vaccine_batch_logs;\n\n    function createVaccineBatch (\n        int64 batch_num, \n        string memory vaccine_type, \n        string memory location, \n        int temperature, \n        int64 received_at, \n        int64 delivered_at\n        ) public {\n\n        vaccine_batch storage new_vaccine_batch = vaccine_batch_logs[batch_num];\n        new_vaccine_batch.batch_num = batch_num;\n        new_vaccine_batch.vaccine_type = vaccine_type;\n        new_vaccine_batch.location = location;\n        new_vaccine_batch.temperature = temperature;\n        new_vaccine_batch.user = msg.sender;\n        new_vaccine_batch.received_at = received_at;\n        new_vaccine_batch.delivered_at = delivered_at;\n\n    }\n\n    function getVaccineBatch(int64 batchNum) public view returns (\n        int64,\n        string memory,\n        string memory,\n        int,\n        address,\n        int64,\n        int64\n    ){\n        vaccine_batch storage batch = vaccine_batch_logs[batchNum];\n        return(\n            batch.batch_num,\n            batch.vaccine_type,\n            batch.location,\n            batch.temperature,\n            batch.user,\n            batch.received_at,\n            batch.delivered_at\n        );\n    }\n\n    // function getVaccineBatchLogs (batch_num) public {\n\n    // }\n\n}",
  "sourcePath": "/Users/joseblock/Documents/Blockchain/ProyectoFinal/contracts/VaccineTracking.sol",
  "compiler": {
    "name": "solc",
    "version": "0.8.13+commit.abaa5c0e.Emscripten.clang"
  },
  "schemaVersion": "3.4.7",
  "updatedAt": "2022-06-07T02:51:43.155Z",
  "networkType": "ethereum",
  "devdoc": {
    "kind": "dev",
    "methods": {},
    "version": 1
  },
  "userdoc": {
    "kind": "user",
    "methods": {},
    "version": 1
  }
}