{
  "contractName": "VaccineTracking",
  "abi": [
    {
      "inputs": [
        {
          "internalType": "uint256",
          "name": "",
          "type": "uint256"
        }
      ],
      "name": "vaccine_batch_logs",
      "outputs": [
        {
          "internalType": "int64",
          "name": "batch_num",
          "type": "int64"
        },
        {
          "internalType": "string",
          "name": "vaccine_type",
          "type": "string"
        },
        {
          "internalType": "string",
          "name": "location",
          "type": "string"
        },
        {
          "internalType": "int256",
          "name": "temperature",
          "type": "int256"
        },
        {
          "internalType": "address",
          "name": "user",
          "type": "address"
        },
        {
          "internalType": "int64",
          "name": "timestamp",
          "type": "int64"
        }
      ],
      "stateMutability": "view",
      "type": "function",
      "constant": true
    },
    {
      "inputs": [
        {
          "internalType": "int64",
          "name": "batch_num",
          "type": "int64"
        },
        {
          "internalType": "string",
          "name": "vaccine_type",
          "type": "string"
        },
        {
          "internalType": "string",
          "name": "location",
          "type": "string"
        },
        {
          "internalType": "int256",
          "name": "temperature",
          "type": "int256"
        },
        {
          "internalType": "int64",
          "name": "timestamp",
          "type": "int64"
        }
      ],
      "name": "createVaccineBatch",
      "outputs": [],
      "stateMutability": "nonpayable",
      "type": "function"
    },
    {
      "inputs": [],
      "name": "getVaccineBatches",
      "outputs": [
        {
          "components": [
            {
              "internalType": "int64",
              "name": "batch_num",
              "type": "int64"
            },
            {
              "internalType": "string",
              "name": "vaccine_type",
              "type": "string"
            },
            {
              "internalType": "string",
              "name": "location",
              "type": "string"
            },
            {
              "internalType": "int256",
              "name": "temperature",
              "type": "int256"
            },
            {
              "internalType": "address",
              "name": "user",
              "type": "address"
            },
            {
              "internalType": "int64",
              "name": "timestamp",
              "type": "int64"
            }
          ],
          "internalType": "struct VaccineTracking.vaccine_batch_log[]",
          "name": "",
          "type": "tuple[]"
        }
      ],
      "stateMutability": "view",
      "type": "function",
      "constant": true
    }
  ],
  "bytecode": "0x608060405234801561001057600080fd5b50610d2d806100206000396000f3fe608060405234801561001057600080fd5b50600436106100415760003560e01c80638a59e4bd14610046578063c5bd966b1461007b578063f0b82a7d14610099575b600080fd5b610060600480360381019061005b91906106c1565b6100b5565b604051610072969594939291906107fd565b60405180910390f35b61008361024b565b6040516100909190610a35565b60405180910390f35b6100b360048036038101906100ae9190610be4565b610468565b005b600081815481106100c557600080fd5b90600052602060002090600502016000915090508060000160009054906101000a900460070b908060010180546100fb90610cc6565b80601f016020809104026020016040519081016040528092919081815260200182805461012790610cc6565b80156101745780601f1061014957610100808354040283529160200191610174565b820191906000526020600020905b81548152906001019060200180831161015757829003601f168201915b50505050509080600201805461018990610cc6565b80601f01602080910402602001604051908101604052809291908181526020018280546101b590610cc6565b80156102025780601f106101d757610100808354040283529160200191610202565b820191906000526020600020905b8154815290600101906020018083116101e557829003601f168201915b5050505050908060030154908060040160009054906101000a900473ffffffffffffffffffffffffffffffffffffffff16908060040160149054906101000a900460070b905086565b60606000805480602002602001604051908101604052809291908181526020016000905b8282101561045f57838290600052602060002090600502016040518060c00160405290816000820160009054906101000a900460070b60070b60070b81526020016001820180546102bf90610cc6565b80601f01602080910402602001604051908101604052809291908181526020018280546102eb90610cc6565b80156103385780601f1061030d57610100808354040283529160200191610338565b820191906000526020600020905b81548152906001019060200180831161031b57829003601f168201915b5050505050815260200160028201805461035190610cc6565b80601f016020809104026020016040519081016040528092919081815260200182805461037d90610cc6565b80156103ca5780601f1061039f576101008083540402835291602001916103ca565b820191906000526020600020905b8154815290600101906020018083116103ad57829003601f168201915b50505050508152602001600382015481526020016004820160009054906101000a900473ffffffffffffffffffffffffffffffffffffffff1673ffffffffffffffffffffffffffffffffffffffff1673ffffffffffffffffffffffffffffffffffffffff1681526020016004820160149054906101000a900460070b60070b60070b815250508152602001906001019061026f565b50505050905090565b60006040518060c001604052808760070b81526020018681526020018581526020018481526020013373ffffffffffffffffffffffffffffffffffffffff1681526020018360070b815250908060018154018082558091505060019003906000526020600020906005020160009091909190915060008201518160000160006101000a81548167ffffffffffffffff021916908360070b67ffffffffffffffff160217905550602082015181600101908051906020019061052a9291906105d4565b5060408201518160020190805190602001906105479291906105d4565b506060820151816003015560808201518160040160006101000a81548173ffffffffffffffffffffffffffffffffffffffff021916908373ffffffffffffffffffffffffffffffffffffffff16021790555060a08201518160040160146101000a81548167ffffffffffffffff021916908360070b67ffffffffffffffff16021790555050505050505050565b8280546105e090610cc6565b90600052602060002090601f0160209004810192826106025760008555610649565b82601f1061061b57805160ff1916838001178555610649565b82800160010185558215610649579182015b8281111561064857825182559160200191906001019061062d565b5b509050610656919061065a565b5090565b5b8082111561067357600081600090555060010161065b565b5090565b6000604051905090565b600080fd5b600080fd5b6000819050919050565b61069e8161068b565b81146106a957600080fd5b50565b6000813590506106bb81610695565b92915050565b6000602082840312156106d7576106d6610681565b5b60006106e5848285016106ac565b91505092915050565b60008160070b9050919050565b610704816106ee565b82525050565b600081519050919050565b600082825260208201905092915050565b60005b83811015610744578082015181840152602081019050610729565b83811115610753576000848401525b50505050565b6000601f19601f8301169050919050565b60006107758261070a565b61077f8185610715565b935061078f818560208601610726565b61079881610759565b840191505092915050565b6000819050919050565b6107b6816107a3565b82525050565b600073ffffffffffffffffffffffffffffffffffffffff82169050919050565b60006107e7826107bc565b9050919050565b6107f7816107dc565b82525050565b600060c08201905061081260008301896106fb565b8181036020830152610824818861076a565b90508181036040830152610838818761076a565b905061084760608301866107ad565b61085460808301856107ee565b61086160a08301846106fb565b979650505050505050565b600081519050919050565b600082825260208201905092915050565b6000819050602082019050919050565b6108a1816106ee565b82525050565b600082825260208201905092915050565b60006108c38261070a565b6108cd81856108a7565b93506108dd818560208601610726565b6108e681610759565b840191505092915050565b6108fa816107a3565b82525050565b610909816107dc565b82525050565b600060c0830160008301516109276000860182610898565b506020830151848203602086015261093f82826108b8565b9150506040830151848203604086015261095982826108b8565b915050606083015161096e60608601826108f1565b5060808301516109816080860182610900565b5060a083015161099460a0860182610898565b508091505092915050565b60006109ab838361090f565b905092915050565b6000602082019050919050565b60006109cb8261086c565b6109d58185610877565b9350836020820285016109e785610888565b8060005b85811015610a235784840389528151610a04858261099f565b9450610a0f836109b3565b925060208a019950506001810190506109eb565b50829750879550505050505092915050565b60006020820190508181036000830152610a4f81846109c0565b905092915050565b610a60816106ee565b8114610a6b57600080fd5b50565b600081359050610a7d81610a57565b92915050565b600080fd5b600080fd5b7f4e487b7100000000000000000000000000000000000000000000000000000000600052604160045260246000fd5b610ac582610759565b810181811067ffffffffffffffff82111715610ae457610ae3610a8d565b5b80604052505050565b6000610af7610677565b9050610b038282610abc565b919050565b600067ffffffffffffffff821115610b2357610b22610a8d565b5b610b2c82610759565b9050602081019050919050565b82818337600083830152505050565b6000610b5b610b5684610b08565b610aed565b905082815260208101848484011115610b7757610b76610a88565b5b610b82848285610b39565b509392505050565b600082601f830112610b9f57610b9e610a83565b5b8135610baf848260208601610b48565b91505092915050565b610bc1816107a3565b8114610bcc57600080fd5b50565b600081359050610bde81610bb8565b92915050565b600080600080600060a08688031215610c0057610bff610681565b5b6000610c0e88828901610a6e565b955050602086013567ffffffffffffffff811115610c2f57610c2e610686565b5b610c3b88828901610b8a565b945050604086013567ffffffffffffffff811115610c5c57610c5b610686565b5b610c6888828901610b8a565b9350506060610c7988828901610bcf565b9250506080610c8a88828901610a6e565b9150509295509295909350565b7f4e487b7100000000000000000000000000000000000000000000000000000000600052602260045260246000fd5b60006002820490506001821680610cde57607f821691505b602082108103610cf157610cf0610c97565b5b5091905056fea264697066735822122083d0e7ecb893f8724e171361569bc54871f37d05aeda0af7f559b89c6d0aa8a664736f6c634300080d0033",
  "immutableReferences": {},
  "source": "// SPDX-License-Identifier: MIT\npragma solidity >=0.4.25 <0.9.0;\n\ncontract VaccineTracking {\n\n    struct vaccine_batch_log{\n        int64 batch_num;\n        string vaccine_type;\n        string location;\n        int temperature;\n        address user;\n        int64 timestamp;\n    }\n\n    vaccine_batch_log[] public vaccine_batch_logs;\n\n    function createVaccineBatch (\n        int64 batch_num, \n        string memory vaccine_type, \n        string memory location, \n        int temperature, \n        int64 timestamp\n    ) public {\n\n        vaccine_batch_logs.push(vaccine_batch_log({\n            batch_num: batch_num,\n            vaccine_type: vaccine_type,\n            location: location,\n            temperature: temperature,\n            user: msg.sender,\n            timestamp: timestamp\n        }));\n\n    }\n\n    function getVaccineBatches() public view returns (vaccine_batch_log[] memory) {\n        return(vaccine_batch_logs);\n    }\n\n}",
  "sourcePath": "/Users/willi/Desktop/repos/vaccine-tracking-blockchain/contracts/VaccineTracking.sol",
  "compiler": {
    "name": "solc",
    "version": "0.8.13+commit.abaa5c0e.Emscripten.clang"
  },
  "schemaVersion": "3.4.7",
  "updatedAt": "2022-06-07T14:11:01.222Z",
  "networkType": "ethereum",
  "devdoc": {
    "kind": "dev",
    "methods": {},
    "version": 1
  },
  "userdoc": {
    "kind": "user",
    "methods": {},
    "version": 1
  }
}